:020000040800F2
:10000000F04A002045010008A90E0008A10E0008D2
:10001000A50E0008070A00088D1A0008000000005D
:10002000000000000000000000000000451500086E
:100030009D0C0008000000002D1400083116000877
:100040005F0100085F0100085F0100085F01000810
:100050005F0100085F0100085F0100085F01000800
:100060005F0100085F0100085F0100085F010008F0
:100070005F0100085F0100085F0100085F010008E0
:100080005F0100085F0100085F0100085F010008D0
:100090005F0100085F0100085F0100085F010008C0
:1000A0005F010008151700085F0100085F010008E4
:1000B0005F0100085F0100085F0100085F010008A0
:1000C0005F0100085F0100085F0100085F01000890
:1000D0005F0100085F0100085F0100085F01000880
:1000E0005F0100085F0100085F0100085F01000870
:1000F0005F0100085F0100085F0100085F01000860
:100100005F0100085F0100085F0100085F0100084F
:100110005F0100085F0100085F0100085F0100083F
:100120005F0100085F0100085F0100085F0100082F
:10013000DFF80CD000F0E0FB004800479D230008EA
:10014000F04A00200648804706480047FEE7FEE7E1
:10015000FEE7FEE7FEE7FEE7FEE7FEE7FEE7FEE777
:10016000B516000831010008F0B480EA0102D40F8E
:100170004200B2EB410F02D20246084611464A0045
:1001800042D0C30DDDB2C1F3C752AD1A202D35DA0E
:10019000C1F3160141F4000204B15242C5F1200638
:1001A00002FA06F12A411044B3EBD05F23D0C4B168
:1001B000012DA0EBC35009DCF0BC4FF0004202EA75
:1001C000C352DBB200F5000000F034BA400000F189
:1001D000807000EBC350A0F1807040EAD1704900FC
:1001E00009E0490841EAC071A0EBC35000F50000E6
:1001F000400800EBC350F0BC00F013BA614201228A
:1002000002EB4101001BF6E7F0BC704781F00041B2
:10021000AAE780F00040A7E780EA010210B502F0EB
:100220000043400022D04A001FD0010E01EB1261B2
:10023000C0F35600C2F3560240F4000042F400023C
:10024000A0FB022000047F39140400D0401C50EAB7
:10025000124001D44000491EC2B20C0604EBD0107B
:10026000401C4008802A02D003E0002010BD20F08E
:100270000100002900DA0020184310BD30B480EAE4
:10028000010202F0004530F0004221F0004013D09E
:1002900090B1C30DD40DC2F31601C0F31600E41AD9
:1002A00041F4000140F400027D34914201D3641C0A
:1002B00000E04900002C02DA30BC002070474FF407
:1002C00000000023914201D3891A034340084FEAFA
:1002D0004101F7D151B1914202D14FF0004105E007
:1002E00002D24FF0010101E06FF0010103EBC450B5
:1002F000284430BC00F095B92DE9FE4F81EA030493
:1003000004F0004421F0004100944FF0000B23F072
:10031000004350EA01045ED052EA03045BD0C3F309
:100320000A54C1F30A552C44A4F2F3340194A0FBFF
:100330000254C1F3130141F48011C3F3130343F4D6
:10034000801301FB024400FB034E840A970A44EA2F
:10035000815447EA8357A4FB076802958D0A05FB81
:1003600007854FEA932C04FB0C542705029D4FEAA6
:10037000065847EA1637B5EB08056EEB070C870EF3
:10038000920E47EA811742EA8312A7FB0201B6EBFD
:100390000B0164EB00042B0D43EA0C335E1844EBB5
:1003A0001C50DA465146E7FB0201C5F313044FEA3D
:1003B0000B3343EA14534FEA0432019C43EA060329
:1003C000A4F10C040294009CCDE900B400F06FF994
:1003D00003B0BDE8F08F00200146F9E72DE9F04DAC
:1003E00081EA030404F0004B21F0004514464FF06D
:1003F000000A23F0004150EA050220D054EA01022D
:100400001DD0C5F30A570246C5F31303C1F3130009
:10041000C1F30A5640F4801543F48013A7EB060895
:10042000101BD64608F2FD3873EB050002D308F125
:10043000010801E092185B41B8F1000F03DA0020D7
:100440000146BDE8F08D00204FF480110646844639
:100450000EE0171B73EB050705D3121B63EB0503B7
:1004600006434CEA010C49084FEA300092185B4100
:1004700050EA0107EDD152EA030012D082EA0400EB
:1004800083EA0501084305D0101BAB4106D20122C7
:10049000002306E000224FF0004302E06FF001026B
:1004A00053101AEB06004CEB085110EB0A0041EB1D
:1004B0000B01BDE8F04D00F0EBB896230022114689
:1004C00000F0B8B80EB5C10F80EAE0700844CA0762
:1004D000002140F233438DE80E000A460B4600F03F
:1004E000E6F803B000BD20F00040C10DC0F31600D7
:1004F00040F400007F2901DA00207047962903DCD0
:10050000C1F19601C840704796398840704700F0A5
:10051000004230F000400AD0C10D01F56071C0F317
:10052000160042EA0151C2084007114370470020FB
:100530000146704701F0004330B421F0004150EA19
:10054000010206D00A0DA2F56072C1F31301002A60
:1005500002DC30BC00207047440F44EAC104C100F3
:10056000E01830BC00EBC25000F05BB8002801DBA3
:10057000C0F10040002901DBC1F100418142704718
:10058000002801DBC0F10040002901DBC1F100417E
:100590008842704730B50B460146002020220124D6
:1005A00009E021FA02F59D4205D303FA02F5491B41
:1005B00004FA02F52844151EA2F10102F1DC30BD57
:1005C0002DE9F05F0546002092469B468846064688
:1005D000814640241BE0284641464746224600F01B
:1005E000ACF953465A46C01A914110D311461846E9
:1005F000224600F093F92D1A67EB01084F46224678
:100600000120002100F08AF917EB00094E41201E5D
:10061000A4F10104DFDC484631462A464346BDE8E2
:10062000F09F0029A8BF7047401C490008BF20F078
:100630000100704710B4B0FA80FC00FA0CF050EAE8
:10064000010404BF10BC704749B1CCF1200421FA69
:1006500004F411FA0CF118BF012121430843A3EB64
:100660000C01CB1D4FEA00614FEA102042BF002071
:1006700010BC704700EBC35010440029A4BF10BC4D
:100680007047401C490008BF20F0010010BC7047B3
:1006900010B5141E73F1000408DA401C41F100018A
:1006A00092185B411A4301D120F0010010BD2DE9E1
:1006B000F04D92469B4611B1B1FA81F202E0B0FAD8
:1006C00080F22032904600F029F904460F4640EAB5
:1006D0000A0041EA0B0153465A46084313D011461B
:1006E00053EA010019D0C8F14002504600F025F944
:1006F00005460E4650465946424600F00FF908435B
:1007000005D0012004E020463946BDE8F08D0020E8
:10071000054346EAE0762C4337430A986305E40A2A
:10072000A0EB08000022FD0A44EA47540A3002D533
:1007300000200146E9E7010510196941DDE9084596
:1007400000196941BDE8F04DA2E72DE9FE4F804652
:1007500081EA0300C00F0C46009021F0004123F015
:100760000045B8EB0200A94105D24046214690461B
:100770001C460B46024623F00040104347D0270D8D
:10078000C7F30A00C3F30A510290401A01904028AF
:100790006BDAC3F3130040F4801B0098924620B13B
:1007A0000023D2EB030A63EB0B0B01985946C0F10F
:1007B0004002504600F0B2F806460D4650465946F3
:1007C000019A00F0CAF810EB08006141002487EAA2
:1007D000115284EAE7731A4340D0009A62B3019A37
:1007E000012A4FEA075215DC001B61EB02014FF0B2
:1007F000004202EA0752CDE90042001C41F5801197
:1008000032462B46FFF753FF03B0BDE8F08F40465A
:100810002146F9E7001B61EB0201001C41F5801342
:1008200000185B412018A2F5001747EB030140EACE
:10083000D570B6196D4111E06D084FEA360645EAEC
:10084000C0754FEA0752001B61EB0201001C41F525
:10085000801149084FEA30000019514132462B46B9
:1008600003B0BDE8F04FFFF713BF0098012240002E
:100870000023D0EB020263EBE073009821464FEABD
:10088000E074B8EB000061EB0401E9E783F000439A
:100890005BE781F0004158E7C1F30A52C1F313014D
:1008A00040F2FF3341F480119A4202DA00200146FF
:1008B000704740F233439A42A2F2334202DC524282
:1008C00000F03BB800F02AB830B5041E71F1000406
:1008D00004DB4FF00044404264EB0101141E73F14D
:1008E000000405DB1C464FF00043524263EB040357
:1008F000994208BF904230BD064C074D06E0E068C3
:1009000040F0010394E8070098471034AC42F6D356
:10091000FFF712FCA0240008C0240008202A04DBF2
:10092000203A00FA02F1002070479140C2F1200302
:1009300020FA03F3194390407047202A04DB203A41
:1009400021FA02F00021704721FA02F3D040C2F1EF
:1009500020029140084319467047202A06DBCB1736
:10096000203A41FA02F043EAE07306E041FA02F36A
:10097000D040C2F12002914008431946704710B59B
:1009800000F02CF800F002F810BD00000EB50121B7
:10099000C80200F05DFD40F2E730ADF804004720EA
:1009A000ADF800000020ADF80600ADF802008DF8AB
:1009B00008006946084800F041FF0121064800F0A0
:1009C000C5FE01221146044800F0E3FE0121024861
:1009D00000F0C2FE0EBD0000002C014008B54FF42F
:1009E000E06000F09BFA19208DF8000000208DF8DF
:1009F000010003208DF8020001208DF803006846F5
:100A000000F054FA08BD00BFFEE7000008B5012160
:100A1000082000F01DFD2020ADF8000010208DF80A
:100A2000030003208DF802006946024800F0A0F997
:100A300008BD0000000C01402DE9FC5F064600F0F7
:100A400057F8002404E0305D00F0FAF8601CC4B2EE
:100A5000082CF8DB442000F0F3F800F049F80024FB
:100A600004E0305D00F0ECF8601CC4B2082CF8DB48
:100A7000BE2000F0E5F800F0ADF8834600F0AAF8DB
:100A800081464FEA092005B245EA0B05002D0EDA32
:100A9000E843401CFFF716FD074600220C4BFFF70A
:100AA0002BFCCDE90001FFF745FD82460CE028460E
:100AB000FFF708FD07460022054BFFF71DFCCDE9B7
:100AC0000001FFF737FD82465046BDE8FC9F00005D
:100AD0000000B03F10B5FFF799FF2021034800F058
:100AE000DDF900F097F800F02DF810BD000C014082
:100AF00010B500F08FF800F025F8552000F0A0F8B0
:100B000010BD000008B52020ADF8000048208DF889
:100B100003006946014800F02BF908BD000C0140B4
:100B200008B52020ADF8000010208DF80300032048
:100B30008DF802006946024800F01AF908BD00006D
:100B4000000C014010B50024FFF7DCFF04E0601C3E
:100B5000C4B2012000F0A4F820210F4800F093F95E
:100B600008B1642CF3DB642C01DB012010BD0024F0
:100B700004E0601CC4B2012000F092F82021064875
:100B800000F081F908B9F02CF3DBF02C01DB012037
:100B9000ECE70020EAE70000000C014010B5FFF789
:100BA000BFFF20210A4800F077F90A2000F078F80A
:100BB000FFF7A8FF2021064800F065F9012801D1C0
:100BC000012400E000242D2000F06AF8204610BD2A
:100BD000000C014070B50026002408E0FFF7DEFF9E
:100BE000054605FA04F03043C6B2601CC4B2082CB6
:100BF000F4DB304670BD70B50546332000F020F8B8
:100C0000002404E0FFF7E6FF2855601CC4B2082C5E
:100C1000F8DB70BD10B5FFF783FF2021074800F017
:100C20003BF940F2EE2000F03BF82021034800F0B1
:100C300035F90F2000F034F810BD0000000C014021
:100C400070B50446FFF76CFF002522E004F00106B2
:100C5000641076B12021104800F01EF9082000F041
:100C60001FF820210C4800F019F93A2000F018F87C
:100C70000DE02021084800F00FF9462000F010F8A0
:100C80002021054800F00AF9022000F009F8681C4C
:100C9000C5B2082DDADB70BD000C014070470000C2
:100CA00001B50849009808604FF0E020006940F065
:100CB00001004FF0E021086100BF024800680028F1
:100CC000FBD108BD5C00002008B50121082000F020
:100CD000BFFB0220ADF8000018208DF803000320B0
:100CE0008DF802006946024800F042F808BD000095
:100CF000000C014010B5FFF7E7FF00F001F810BD50
:100D000000B587B00121022000F092FB6320ADF80E
:100D1000140040F2CF20ADF810000020ADF816000E
:100D2000ADF812008DF8180004A90F4800F086FDF8
:100D30006020ADF800000120ADF802000020ADF801
:100D400008000A480088ADF806006946064800F029
:100D500029FD0821044800F063FD0121024800F04C
:100D6000FBFC07B000BD000000040040560000205E
:100D70002DE9F04102460025002600200023002432
:100D8000002791F803C00CF00F0591F803C00CF098
:100D9000100CBCF1000F03D091F802C04CEA05051D
:100DA00091F800C0BCF1000F31D0146800202BE096
:100DB0004FF0010C0CFA00F3B1F800C00CEA030686
:100DC0009E4220D183004FF00F0C0CFA03F7BC4376
:100DD00005FA03FC4CEA040491F803C0BCF1280FA7
:100DE00006D14FF0010C0CFA00FCC2F814C00AE066
:100DF00091F803C0BCF1480F05D14FF0010C0CFA7B
:100E000000FCC2F810C0401C0828D1D31460B1F80F
:100E100000C0BCF1FF0F34DD546800202EE000F16B
:100E2000080C4FF0010808FA0CF3B1F800C00CEA06
:100E300003069E4221D183004FF00F0C0CFA03F7FA
:100E4000BC4305FA03FC4CEA040491F803C0BCF16E
:100E5000280F05D100F1080C08FA0CF8C2F814802C
:100E600091F803C0BCF1480F07D100F1080C4FF016
:100E7000010808FA0CF8C2F81080401C0828CED3EC
:100E80005460BDE8F0810246002093680B400BB12E
:100E9000012000E000207047416170470161704708
:100EA00000BFFEE700BFFEE77047000070B50021FD
:100EB00000230F22C47804B3154C246804F4E064C2
:100EC000C4F5E064210AC1F10403CA40447804FA7D
:100ED00003F184781440214309010E4C0678A15592
:100EE000047804F01F050124AC4005786D11AD00B5
:100EF00005F1E025C5F8004109E0047804F01F057C
:100F00000124AC40044D0678761145F8264070BDAA
:100F10000CED00E000E400E080E100E00249014364
:100F2000024A1160704700000000FA050CED00E075
:100F300070B53148008801285CD1304A516810688A
:100F4000FFF764F92D4948610A465169D069FFF7F6
:100F50000BF92A49C8610A4691695069FFF756F9A9
:100F60000546264A51699068FFF756F923494862B9
:100F70000A46D169D068FFF74FF92049086208692D
:100F80002946FFF749F91D4988620A46116A506AE5
:100F9000FFF7EAF806461948816A3046FFF7E4F899
:100FA000044617480088401C15490880154920460A
:100FB000FFF7E6FA04D20020114908800F49C86102
:100FC00010492046FFF7DCFA03D20E480B490863AC
:100FD0000AE000212046FFF7C9FA03D200200749A2
:100FE000086301E0054804630448406903498861D7
:100FF00000F0EEF970BD00004E00002064000020FB
:101000005800002000007F4370B53B483B49086012
:101010004FF07E50C8620020394908803949086085
:1010200039490860394908803949088039490880B8
:1010300039490880314A11685068FFF797FA59D842
:101040002E4A51681068FFF7E1F805464FF08041DD
:10105000FFF714F90446294841682046FFF784F851
:10106000264948630A4651681068FFF7CFF80546DD
:101070004FF08041FFF702F90446204841682046BE
:10108000FFF772F81D4948630A4651681068FFF778
:10109000BDF805464FF08041FFF7F0F804461748C9
:1010A00041682046FFF760F8144948630A465168D2
:1010B0001068FFF7ABF805464FF08041FFF7DEF808
:1010C00004460E4841682046FFF74EF80B49486336
:1010D0000A4651681068FFF799F805464FF08041BD
:1010E000FFF7CCF80446054841682046FFF73CF876
:1010F0000249486370BD00000000F0416400002018
:101100005200002044000020480000204E00002033
:10111000500000204C000020540000202DE9F04F2A
:101120008BB000240020099008900790069081461B
:101130000590049094480088002872D19349088053
:10114000934A516B5068FFF711FA1CD2914800681E
:10115000401C9049086000208F4908608D48006855
:1011600003282DD300208D490880FFF7C3FD8C484C
:10117000008828BB01208A4908808A480088401CD2
:10118000884908801CE084480068401C8249086047
:1011900000208049086080480068032810D9642036
:1011A0007E490880FFF7A6FD7D480088012807D109
:1011B00000207B4908807B480088401C79490880D2
:1011C000744800684FF6FF71884202D3084671499F
:1011D0000860714800684FF6FE71884202D30846E5
:1011E0006D4908606F480088032803D06D48008867
:1011F000042817D166494868FFF775F96A496B4AB0
:10120000128821F8120069480088401C674908804C
:101210000846008842F22831884202DB00206349F8
:101220000880ADE05F4800880528FAD101205749C1
:1012300008805549088000205A4908805A49088882
:10124000FFF73BF9814658490888FFF736F90690C1
:10125000002429E0544931F81400FFF72EF905461F
:101260004946FFF78DF909D84F4931F81400FFF7C7
:1012700024F981462046FFF720F904904A4931F8C5
:101280001400FFF71AF905460699FFF76FF909D818
:10129000454931F81400FFF710F906902046FFF792
:1012A0000CF90590601CC4B2404800888442D1DB30
:1012B00048460699FEF7AAFF07903D480799FEF7B2
:1012C000DDFF099039480088FFF7F7F80890099882
:1012D000FFF71DF907464FF03332364BFFF70CF896
:1012E0000546FFF727F92A4988600898FFF70FF9A4
:1012F00005460022304BFEF7FFFFCDE900010998BB
:10130000FFF705F905464FF033322A4BFEF7F4FF9D
:101310000746DDE90023FFF761F80022274BCDE9FE
:101320000201FFF75BF88246FFF704F91849C8602D
:101330000898FFF7ECF8054600224FF07F53FEF7C0
:10134000DBFF074688460998FFF7E1F805464FF0AE
:101350003332184BFEF7D0FF82463A464346FEF73B
:10136000CBFF0022164BCDE90001FFF737F8CDE99E
:101370000201FFF7DFF80649086112A000F088FBC0
:101380000BB0BDE8F08F0000500000204E000020A0
:101390006400002048000020440000205600002087
:1013A0004000002052000020A00000205400002037
:1013B0000000FE423333E33F0000E03F00002440E2
:1013C00000004E400D0AD5FBB6A8B3C9B9A600006F
:1013D0002DE9F041114A11685068FFF7D1F805D2A4
:1013E00064200F490880FFF785FC14E00B49086B67
:1013F0000C49FEF711FF07460B49FEF73FFF064673
:101400000849FEF706FF0546FFF76DF884B2044869
:101410000480FFF76FFCBDE8F0810000640000204D
:10142000560000200000C84200007F4370470000C3
:1014300029B1064AD2690243044BDA6104E0034A47
:10144000D2698243014BDA6170470000001002400C
:1014500029B1064A92690243044B9A6104E0034AA7
:1014600092698243014B9A6170470000001002406C
:1014700030B500210022002400232D4D6D6805F0B9
:101480000C0121B1042905D0082923D105E0294DFB
:10149000056022E0274D05601FE0254D6D6805F4CD
:1014A0007012234D6D6805F48034022505EB9242DD
:1014B0001CB9214D554305600BE01D4D6D6805F4C9
:1014C00000351DB11C4D5543056002E0194D5543D3
:1014D000056002E0174D056000BF00BF144D6D6848
:1014E00005F0F0010909154D6B5C0568DD404560AC
:1014F0000F4D6D6805F4E061090A104D6B5C45689D
:10150000DD4085600A4D6D6805F46051C90A0B4DD8
:101510006B5C4568DD40C560054D6D6805F4404174
:10152000890B074D6B5CC568B5FBF3F5056130BDF4
:101530000010024000127A0000093D001400002053
:1015400024000020704710B500F002F810BD000024
:101550000CB50020019000903348006840F48030C2
:101560003149086000BF3048006800F40030009046
:101570000198401C0190009818B90198B0F5A06F2F
:10158000F1D12948006800F4003010B1012000902A
:1015900001E0002000900098012843D12348006812
:1015A00040F01000214908600846006820F0030060
:1015B00008600846006840F0020008601A48406869
:1015C000194948600846406848600846406840F449
:1015D000806048600846406820F47C1048600846F7
:1015E000406840F4E81048600846006840F08070A9
:1015F000086000BF0C48006800F000700028F9D0B7
:101600000948406820F003000749486008464068E0
:1016100040F00200486000BF0348406800F00C0042
:101620000828F9D10CBD0000001002400020024043
:1016300010B500F055F910BD30B51A4800681A4AC7
:10164000B0FBF2F1B1F1807F01D301201DE021F068
:101650007F40401E4FF0E022506150170F220028BB
:1016600007DA13071D0E114B00F00F04241F1D5540
:1016700003E013071C0E0E4B1C5400BF00204FF05C
:10168000E022906107201061002008B100BFFEE752
:101690004FF0E020006920F001004FF0E0210861E8
:1016A00030BD00000000002040420F0018ED00E0B7
:1016B00000E400E010B51348006840F00100114953
:1016C000086008464068104908400E4948600846CE
:1016D00000680E4908400B4908600846006820F47D
:1016E000802008600846406820F4FE0048604FF4FF
:1016F0001F008860FFF727FF4FF000600449086073
:1017000010BD0000001002400000FFF8FFFFF6FED1
:1017100008ED00E010B50121094800F029F868B192
:1017200008480068401C0749086007480068401CDA
:10173000054908600121024800F00BF810BD0000C7
:10174000002C0140280000202C000020CA43028207
:101750007047CA430282704721B1028842F00102F9
:10176000028004E002884FF6FE731A400280704740
:1017700030B50246002000230024158A05EA010343
:10178000958905EA010413B10CB1012000E00020A5
:1017900030BD1AB183890B43838102E083898B4377
:1017A0008381704770B5002200230024058C4EF61B
:1017B000FF7635400584038C8488828B48F6FF755C
:1017C0002A404FF6FF452A400D884FF6FF7606EA7D
:1017D00005252A434DF6FF752B400D8906EA053590
:1017E0002B434D8806EA05352B430B4DA84202D00A
:1017F0000A4DA84208D14BF6FF752C408D894FF653
:10180000FF7606EA85152C4384808283CD88A0F874
:101810004050038470BD0000002C014000340140A2
:101820000A460021818B4FF2FF7319404FF6FF7378
:1018300003EA0223194381837047000000220288D3
:101840001D4B98420ED01D4B98420BD0B0F1804FEB
:1018500008D01B4B984205D01A4B984202D01A4B25
:10186000984204D14FF68F731A404B881A43174B96
:10187000984207D0164B984204D04FF6FF431A40C7
:10188000CB881A4302808B8883850B8803850A4B9B
:1018900098420BD0094B984208D00E4B984205D085
:1018A0000D4B984202D00D4B984201D10B7A038622
:1018B0000123838270470000002C01400034014066
:1018C0000004004000080040000C004000100040F0
:1018D0000014004000400140004401400048014025
:1018E0000448006820B103480068401E01490860B0
:1018F000704700005C00002021B1828942F4005250
:10190000828104E082894DF6FF731A40828170471C
:1019100000B585B001210420FFF79AFD012188035D
:10192000FFF796FD4FF40070ADF8100018208DF809
:10193000130003208DF8120004A91348FFF718FACA
:101940004FF48060ADF8100004208DF8130004A956
:101950000D48FFF70DFA4FF4E13000900020ADF88C
:101960000400ADF80600ADF80800ADF80C000C203E
:10197000ADF80A006946054800F018F8012103484F
:10198000FFF7BAFF05B000BD000801400038014074
:1019900002460020B1F5007F00D100BF13880B4044
:1019A0000BB1012000E00020704700002DE9F04756
:1019B00086B005460E460024A24600BFA146002779
:1019C000B08900B100BF2F462C8A4CF6FF7004404E
:1019D000F08804432C82AC894EF6F3100440B088A2
:1019E00031890843718908430443AC81AC8A4FF6BE
:1019F000FF400440B0890443AC8201A8FFF738FDE2
:101A00001F48874202D1DDF810A001E0DDF80CA0EC
:101A1000A88900F4004040B10AEBCA0000EB0A10AC
:101A200031684900B0FBF1F807E00AEBCA0000EBAF
:101A30000A1031688900B0FBF1F86420B8FBF0F0BF
:101A400004012009642101FB1089A88900F40040E9
:101A500040B1322000EBC900B0FBF1F000F007000C
:101A6000044308E0322000EB09106421B0FBF1F0E0
:101A700000F00F0004432C8106B0BDE8F0870000A1
:101A800000380140C1F308028280704700BFFEE7C2
:101A90000FB4054B10B503A9044A029800F0CAF828
:101AA00010BC5DF814FB00007923000860000020E2
:101AB00002E008C8121F08C1002AFAD17047704717
:101AC000002001E001C1121F002AFBD17047000075
:101AD0002DE9FF5FDDE90220010DDDF838B002439A
:101AE00018D044F61050A1F2FF3141430D140F9865
:101AF000012820D0A5EB0B00401C5FEA000A4FF044
:101B00000004474EDFF81C91A046504616D5CAF196
:101B1000000728E00F98012443A2012808D00021E3
:101B200000980F9BC0E90021C0E90243BDE8FF9F78
:101B30006FEA0B01F4E7CBF10000DEE7074612E0A5
:101B4000F80707D02246334640464946FEF7D4FB05
:101B5000804689462246334610461946FEF7CCFB9E
:101B600004460E467F10002FEAD1DDE90201BAF1EA
:101B7000000F42464B4602DAFEF7BEFB01E0FEF7DD
:101B80002DFC04460E460022284BFEF79DFE03D88E
:101B90004FF0FF30014607E00022254B204631463A
:101BA000FEF7D3FDFEF778FE102409E0002C0ADBD7
:101BB0000A220023FEF704FD019B30321A55641EF1
:101BC00050EA0102F2D1641C019AC4F111031444D9
:101BD0000F9A012A03D0012208430DD10AE00843DD
:101BE00004D000204FF0110B0F9080E7A3EB0B0502
:101BF0006D1E0DE05B4504DD4FF0000205F10105AF
:101C000004E003DA4FF00002A5F10105002AECD050
:101C100000980F99C0E90231C0E9004586E700004D
:101C2000000024400000F03F300000000000F043BE
:101C30000000E03F2DE9FF4F95B09B4689460646E0
:101C400000250FE2252877D100242746F84A0121F4
:101C5000059400E0044316F8013F203B01FA03F02D
:101C60001042F7D130782A2811D06FF02F03307846
:101C7000A0F13002092A16D8059A44F0020402EBBA
:101C8000820203EB42021044761C0590EFE759F8FC
:101C9000042B0592002A03DA504244F400540590C4
:101CA00044F00204761C30782E2816D116F8010F65
:101CB00044F004042A280DD06FF02F023078A0F1F0
:101CC0003003092B09D807EB870302EB4303C7183E
:101CD000761CF3E759F8047B761C30786C280FD01B
:101CE00006DC4C2817D068280DD06A2814D104E0EF
:101CF000742810D07A280FD10DE044F400140AE0C3
:101D000044F4801401E044F440147278824202D119
:101D100004F58014761C761C307866280BD013DC12
:101D2000582877D009DC002875D04528F6D04628F9
:101D3000F4D047281AD19DE118E0632835D06428F3
:101D400079D0652812D195E1702873D008DC672816
:101D5000F1D069286FD06E280DD06F2806D1B5E07C
:101D600073282CD0752875D0782874D05A461799C6
:101D700090476D1C75E1C4F30250022809D0032876
:101D80000DD0D9F8001004280DD00D6009F1040918
:101D900067E1D9F80010EA17C1E90052F6E7D9F86F
:101DA00000100D80F2E70D70F0E719F8041B8DF8B4
:101DB000001000208DF80100EA46012003E059F8E8
:101DC00004AB4FF0FF3061074FF0000102D40DE08B
:101DD00008F101018846B9420FDA8045F8DB1AF8AC
:101DE00008100029F4D108E008F101018846814279
:101DF000FADB1AF808100029F6D105985B46A0EB2B
:101E0000080721463846179A00F094FA284400EB58
:101E1000080507E04DE029E10DE01AF8010B5A46EC
:101E200017999047B8F10108F7D25B46214638462A
:101E3000179A13E142E00A220092C4F302524FF0D3
:101E4000000A022A08D059F804CB032A4FEAEC71A1
:101E50000AD00DE029E02AE009F1070121F007028C
:101E6000F2E802C1914609E00FFA8CFC4FEAEC71EE
:101E7000042A03D14FFA8CFC4FEAEC71002907DAEF
:101E80000A460021DCF1000C61EB02012D2202E088
:101E9000220504D52B228DF80420012203E0E2075D
:101EA00001D02022F7E7904659E00A2102E01022F3
:101EB0000DE010214FF0000A00910BE010224FF0CE
:101EC000000A44F004040827009203E008224FF0BF
:101ED000000A0092C4F30252022A05D059F804CB3A
:101EE0000021032A08D009E009F1070121F00702C7
:101EF000F2E802C1914605E01FFA8CFC042A01D1E8
:101F00000CF0FF0C4FF00008220728D5702806D0EF
:101F1000009B83F0100353EA0A0305D00EE0402231
:101F20008DF80420012208E05CEA010206D030228C
:101F30008DF804208DF8050002229046009B83F066
:101F4000080353EA0A030AD15CEA010201D16207DD
:101F500005D530228DF804204FF001087F1E582847
:101F600004D034A003900EA802900DE036A0F9E74B
:101F700053466046009AFEF723FB84460398825C32
:101F80000298401E029002705CEA0100F0D10298B3
:101F900006A9081A00F1200A600702D524F480344B
:101FA00000E00127574502DDA7EB0A0000E0002012
:101FB00000EB0A01009005984144401A0590E003A7
:101FC00006D45B462146179A059800F0B3F90544FC
:101FD000002706E001A85A46C05D179990476D1C7E
:101FE0007F1C4745F6DBE0030CD55B462146179A7C
:101FF000059800F09FF9054404E030205A461799EF
:1020000090476D1C0099481E00900029F5DC08E0FF
:10201000029802995A460078491C029117999047F4
:102020006D1CBAF10001AAF1010AF1DC65E10000C2
:10203000092801003031323334353637383961629E
:102040006364656600000000303132333435363762
:1020500038394142434445460000000000F058F939
:102060000544761C307800287FF4ECAD19B0284682
:10207000BDE8F08F620700D4062709F1070222F0BD
:10208000070CFCE80223E14603F000485FEA080C75
:1020900002D00FF2702C0DE05FEA045C02D50FF263
:1020A000682C07E05FEAC47C02D00FF2602C01E0EC
:1020B000AFF2700C4FF0FF3823F00043CDF850C062
:1020C00065280CD006DC452809D046281DD04728B5
:1020D0003DD13DE0662818D067287ED138E0002148
:1020E000112F01DB112000E0781CCDE9000106A9C9
:1020F0000EA8FFF7EDFCDDE90F010E9A0391002118
:10210000009207F1010A04914DE04FF00040009762
:10211000CDE9011006A90EA8FFF7DAFCDDE90F02F0
:1021200003920E9B11990022DDF80CA000930492FB
:1021300011B9791C00EB010AB7EB0A0004D4C0F115
:10214000FF3007F1010A0490AAEB0700019044E078
:10215000012F00DA01270021112F01DD112000E0FD
:102160003846CDE9000106A90EA8FFF7B1FCDDE96C
:102170000F010E9A0391002104910092BA462107A3
:102180000CD40399514500DA8A46BAF1010F05DDF6
:10219000009AAAF10101515C302908D0B84202DA54
:1021A00010F1040F06DA0121CDE9011015E0AAF1C2
:1021B0000101E9E7002805DC049901440491AAEB38
:1021C000000102E0411C514500DD8A460499401A95
:1021D000401C01904FF000400290200704D4019869
:1021E000504501DBCDF8048000208DF84F000298A7
:1021F0000DF14F07B0F1004F25D02B200E90029823
:102200004FF0020800280CDA404202902D200E9078
:1022100007E00A210298FEF7BDF93031029007F875
:10222000011DB8F10001A8F10108F2DC02980028B4
:10223000EFD1791E0E980870307800F0200040F041
:10224000450007F8020D12A8C01B00F107081498FA
:10225000007800B1012000EB0A01019801EBE07168
:1022600005984144401A401E0590E00306D45B46A1
:102270002146179A059800F05DF8054414980078F7
:1022800018B15A46179990476D1CE00324D55B4658
:102290002146179A059800F04DF805441CE0049873
:1022A000002807DBDDE90301884203DD0098405C7C
:1022B000179901E0179930205A469047049805F184
:1022C0000105401C04900198401E019004D12E206D
:1022D0005A46179990476D1CBAF10001AAF1010AFC
:1022E000DDDC05E017F8010B5A46179990476D1C85
:1022F000B8F10001A8F10108F4DC5B462146179A09
:102300000598ABE62D0000002B0000002000000027
:102310002DE9F041044600251E461746880404D4E2
:1023200005E039462020B0476D1C641EF9D52846CB
:10233000BDE8F0812DE9F041044600251E46904697
:10234000C80301D5302700E02027880404D505E024
:1023500041463846B0476D1C641EF9D52846BDE895
:10236000F0810000002000E0401C02498842FBDBB5
:10237000704700008096980070B504460D46E1B2A3
:102380000548FFF77FFB00BF80210348FFF700FBF4
:102390000028F9D0204670BD00380140FFF7E2FF69
:1023A000322024490880FEF7EAFAFEF7A3FCFFF783
:1023B00043F9FFF7ADFA20A0FFF76AFB02E027A080
:1023C000FFF766FBFEF786FB0028F8D129A0FFF790
:1023D0005FFB2D48FEF70FFC2B48FEF72DFB2B492A
:1023E0000860084600682A494860FEF70DFE294843
:1023F000274948631DE025480068FEF788F8044631
:1024000022460B4624A0FFF743FB4FF47A70FEF7F9
:1024100047FC1D48FEF710FB1C4908600846006891
:102420001B494860194800684860FEF777FEFEF7D0
:102430007FFDE0E7560000200D0A207468697320D4
:10244000697320612064733138623230207465739F
:10245000742064656D6F200D0A0000000D0A206E67
:102460006F20647331386232302065786974200DD2
:102470000A0000000D0A2064733138623230206592
:10248000786974200D0A0000380000203000002018
:10249000640000200000E0410D0A252E3166000096
:1024A000C02400080000002064000000B01A0008EA
:1024B00024250008640000208C4A0000C01A00088F
:1024C00000A24A0400000000000000000102030412
:1024D00006070809000000000102030401020304CA
:1024E00006070809020406080000000000000000BA
:1024F00000000000000000000000000000000000DC
:1025000000000000000000000000000000000000CB
:1025100000000000000000000000000000000000BB
:0425200000000000B7
:0400000508000131BD
:00000001FF
